:020000040000FA
:0400000036EF00F0E7
:0600080048820AED07F03A
:100018004880D8CF3BF0E8CF3CF0E0CF3DF0D9CFD7
:100028003EF0DACF3FF09EAA1CEF00F01EEF00F082
:100038002AEF00F0ABA223EF00F025EF00F028EF45
:1000480000F0AB980000AB88B4EC0AF03FC0DAFFD0
:100058003EC0D9FF3DC0E0FF3CC0E8FF3BC0D8FF31
:0800680048901000F3EF0AF0CC
:100600000050726573732074686520627574746F2E
:100610006E20746F20636F6E74696E7565207468E8
:1006200065206368616C6C656E6765210A0D004426
:100630006F6E277420666F7267657420746F206B0D
:1006400065657020616E20657965206F6E20746825
:10065000652074696D65210A0D0050726573732001
:1006600074686520627574746F6E20746F20737483
:100670006172742073686F6F74696E67210A0D0070
:1006800057656C636F6D6520746F207468652073A7
:10069000686F6F74696E672067616D65210A0D0070
:1006A00050726573732074686520627574746F6E20
:1006B00020746F2072657374617274210A0D000AD0
:1006C0000D476F6F64204A6F6220210A0D000D47AD
:1006D000616D65204F76657220210A0D000D7363F0
:1006E0006F7265203A200053544152540A0D002580
:0306F000640000A3
:1006F400DBEC0CF0000E0001B76F010EB86F800E3A
:10070400B96F24EC0CF0000E0001B86F010EB96F44
:1007140041EC0BF084EC0BF0000E0001B76F010EFE
:10072400B86F5A0EB96F24EC0CF0000E0001B86FCC
:10073400010EB96F41EC0BF084EC0BF0000E0001DC
:10074400B76F010EB86F2F0EB96F24EC0CF0000ECA
:100754000001B86F010EB96F41EC0BF084EC0BF0A3
:10076400000E0001B56F000EB46F040E0001AE1947
:10077400AF11D8A4C0EF03F0C2EF03F021EF04F0EF
:10078400000EB76F010EB86FBF0EB96F24EC0CF0FA
:10079400000E0001B86F010EB96F41EC0BF084EC50
:1007A4000BF0000E0001B76F010EB86F010EB96FA8
:1007B40024EC0CF0000E0001B86F010EB96F41EC8F
:1007C4000BF084EC0BF0000E0001B76F010EB86F54
:1007D4002F0EB96F24EC0CF0000E0001B86F010E5F
:1007E400B96F41EC0BF084EC0BF0000E0001B16F1B
:1007F400000EB06F000EAF6F000EAE6F000EA56F4F
:10080400000EA46F000E476E010E466E8C92070E0A
:100814000001E56F580EE46F590EE82EFED7E42F61
:10082400FCD7E52FFAD700D08C80210E0001E46FAD
:10083400760EE82EFED7E42FFCD700008C90000142
:10084400B005B111D8A429EF04F02BEF04F09CEF0C
:1008540004F0040EAE19AF11D8B433EF04F035EF41
:1008640004F09CEF04F0000EB76F010EB86FCE0ECB
:10087400B96F24EC0CF0000E0001B86F010EB96FD3
:1008840041EC0BF084EC0BF0000E0001B76F010E8D
:10089400B86FA00EB96F24EC0CF0000E0001B86F15
:1008A400010EB96F41EC0BF084EC0BF0000E00016B
:1008B400B76F010EB86F2F0EB96F24EC0CF0000E59
:1008C4000001B86F010EB96F41EC0BF084EC0BF032
:1008D400000E0001B16F000EB06F000EAF6F000E7E
:1008E400AE6F000EB56F000EB46F000EB36F000E46
:1008F400B26F000EA56F000EA46F000E476E010EBE
:10090400466E8C92070E0001E56F580EE46F590E87
:10091400E82EFED7E42FFCD7E52FFAD700D08C8041
:10092400210E0001E46F760EE82EFED7E42FFCD7EB
:1009340000008C9080B0A1EF04F0A3EF04F0C7EFA7
:1009440004F00001B051B111D8A4ABEF04F0ADEF45
:1009540004F0C7EF04F0AC51AD11D8A4B4EF04F027
:10096400B6EF04F0C7EF04F0A405A511D8A4BDEFB9
:1009740004F0BFEF04F0C7EF04F0000EAD6F010EFA
:10098400AC6FAE4BAF2BC2EC07F080B2CCEF04F0EF
:10099400CEEF04F0F2EF04F00001B051B111D8A48D
:1009A400D6EF04F0D8EF04F0F2EF04F0AA51AB1143
:1009B400D8A4DFEF04F0E1EF04F0F2EF04F0A405B3
:1009C400A511D8A4E8EF04F0EAEF04F0F2EF04F084
:1009D400000EAB6F010EAA6FAE4BAF2BC2EC07F04B
:1009E40080B4F7EF04F0F9EF04F01DEF05F0000117
:1009F400B051B111D8A401EF05F003EF05F01DEFDC
:100A040005F0A851A911D8A40AEF05F00CEF05F0E0
:100A14001DEF05F0A405A511D8A413EF05F015EFFB
:100A240005F01DEF05F0000EA96F010EA86FAE4B87
:100A3400AF2BC2EC07F080B622EF05F024EF05F0EF
:100A4400B7EF03F00001B051B111D8A42CEF05F0B9
:100A54002EEF05F0B7EF03F0A651A711D8A435EF98
:100A640005F037EF05F0B7EF03F0A405A511D8A4FE
:100A74003EEF05F040EF05F0B7EF03F0000EA76F6F
:100A8400010EA66FAE4BAF2BC2EC07F0B7EF03F02D
:100A940036EF00F00001C251D96EDA6ADFCFF6FFFB
:100AA400060EF76E0800F550250AD8A45CEF05F091
:100AB4005EEF05F01BEF06F0C251D96EDA6ADF2A49
:100AC400000EA16F000EA06FA0C0B6F0A269A369CA
:100AD400C251D96EDA6ADF50C66FC6C0F6FF060E81
:100AE400F76E0800F550640AD8B47BEF05F07DEF8B
:100AF40005F08BEF05F0C6C0F6FF060EF76E080092
:100B0400F550690AD8A489EF05F08BEF05F014EFCE
:100B140006F0C351D96EDA6A020EDF26DF5CD96EA5
:100B2400DA6ADECFC7F0DECFC8F0C251D96EDA6A16
:100B3400C629DF6E200ECB6FC8BFA3EF05F0A6EF6A
:100B440005F0010EA7EF05F0000EC56FCB07CB51E2
:100B5400800FD96EDA6AC7C0B7F0C8C0B8F0000E0B
:100B6400BA6F0A0EB96FABEC09F0B7C0BDF0B8C0EC
:100B7400BEF07DEC0CF00001BD51300FDF6EC7C03C
:100B8400B7F0C8C0B8F0000EBA6F0A0EB96F2BECFC
:100B940008F0B7C0C7F0B8C0C8F00001C751C81109
:100BA400D8B4D7EF05F0D9EF05F0E1EF05F0CB515C
:100BB400D8A4DFEF05F0E1EF05F0A8EF05F0CB5185
:100BC400D8B4E7EF05F0E9EF05F009EF06F0C551F9
:100BD400D8B4EFEF05F0F1EF05F009EF06F0CB071D
:100BE400CB51800FD96EDA6A2D0EDF6E09EF06F055
:100BF400CB51800FD96EDA6ADF50C46FC451B76F1E
:100C0400B86BC1C0B9F0F0EC08F00001CB2B200E9A
:100C1400CB19D8A410EF06F012EF06F0FAEF05F0A6
:100C24002CEF06F00001C251D96EDA6ADF2A2CEFEC
:100C340006F0C251D96EDA6ADFCFF6FF060EF76E00
:100C44000800F550B76FB86BC1C0B9F0F0EC08F00C
:100C540014EF06F012000C50D96EDA6ADFCFF6FFFB
:100C6400060EF76E0800F550250AD8A43CEF06F0EE
:100C74003EEF06F0F8EF06F00C50D96EDA6ADF2A80
:100C8400000E0001A16F000EA06FA0C0B6F0A26913
:100C9400A3690C50D96EDA6ADF50106E10C0F6FFEB
:100CA400060EF76E0800F550640AD8B45CEF06F03F
:100CB4005EEF06F06CEF06F010C0F6FF060EF76E5E
:100CC4000800F550690AD8A46AEF06F06CEF06F044
:100CD400F2EF06F00D50D96EDA6A020EDF26DF5C01
:100CE400D96EDA6ADECF11F0DECF12F00C50D96E75
:100CF400DA6A1028DF6E200E156E12BE84EF06F03D
:100D040087EF06F0010E88EF06F0000E0F6E150651
:100D14001550800FD96EDA6A11C001F012C002F0CA
:100D2400000E046E0A0E036E5CEC0AF001C007F0BC
:100D340002C008F098EC0CF00750300FDF6E11C0C1
:100D440001F012C002F0000E046E0A0E036E8EEC67
:100D540008F001C011F002C012F011501210D8B402
:100D6400B6EF06F0B8EF06F0C0EF06F01550D8A4C1
:100D7400BEEF06F0C0EF06F089EF06F01550D8B4C8
:100D8400C6EF06F0C8EF06F0E7EF06F00F50D8B450
:100D9400CEEF06F0D0EF06F0E7EF06F0150615509B
:100DA400800FD96EDA6A2D0EDF6EE7EF06F015506C
:100DB400800FD96EDA6ADF500E6E0E50016E026A31
:100DC4000BC003F04EEC09F0152A200E1518D8A418
:100DD400EEEF06F0F0EF06F0D9EF06F009EF07F0BA
:100DE4000C50D96EDA6ADF2A09EF07F00C50D96E7D
:100DF400DA6ADFCFF6FF060EF76E0800F550016ED3
:100E0400026A0BC003F04EEC09F0F2EF06F0120098
:100E14000600E1CF2CF0E2CF2DF0D9CF2EF0DACFBF
:100E24002FF0F6CF30F0F7CF31F0F8CF32F0F5CF26
:100E340033F0F2A220EF07F022EF07F0B0EF07F053
:100E440046504710D8B429EF07F02BEF07F0B0EF66
:100E540007F0000E016E010E026EE70E036E60ECE9
:100E64000CF0000E026E010E036EC5EC0BF0E5EC07
:100E74000BF0000E016E010E026EDD0E036E60ECCF
:100E84000CF0000E026E010E036EC5EC0BF0E5ECE7
:100E94000BF0000E1A6E010E1B6EEF0E1C6EB4C02A
:100EA4001DF0B5C01EF042EC0CF0000E026E010EF7
:100EB400036EC5EC0BF0E5EC0BF0000E0001A56F22
:100EC400010EA46F000EB16F000EB06FB3BF76EFCA
:100ED40007F0B35107E1050EB25DD8B074EF07F027
:100EE40076EF07F092EF07F0B24BB32B000EAD6F25
:100EF400000EAC6F000EAB6F000EAA6F000EA96F50
:100F0400000EA86F000EA76F000EA66F000E456EB0
:100F1400000E446E000E436E000E426EAAEF07F000
:100F2400000EAD6F000EAC6F000EAB6F000EAA6F1B
:100F3400000EA96F000EA86F000EA76F000EA66F1B
:100F4400000E456E000E446E000E436E000E426E9F
:100F54008C82F292000E476E000E466E33C0F5FF8F
:100F640032C0F8FF31C0F7FF30C0F6FF2FC0DAFF00
:100F74002EC0D9FF2DC0E2FF2CC0E1FF4892110022
:100F8400E0EF07F0000EB56F000EB46F03EF08F04A
:100F9400B44BB52B03EF08F0020EB427000EB523B3
:100FA40003EF08F0030EB427000EB52303EF08F097
:100FB400040EB427000EB52303EF08F0B2C0E2F02C
:100FC400B3C0E3F00001E351000AD8B4ECEF07F03A
:100FD400DAEF07F0E251000AD8B4C4EF07F0010ACF
:100FE400D8B4CAEF07F0030AD8B4CEEF07F0010A69
:100FF400D8B4D4EF07F0070AD8B4DAEF07F0DAEF81
:1010040007F0000EB76F010EB86FDD0EB96F24EC58
:101014000CF0000E0001B86F010EB96F41EC0BF03B
:1010240084EC0BF0000E0001D06F010ED16FEF0EB7
:10103400D26FB4C0D3F0B5C0D4F0A5EC0BF0000E61
:101044000001B86F010EB96F41EC0BF084EC0BF0AA
:101054001200000E0001BC6FBABF35EF08F033EF89
:1010640008F03BEF08F0B96DBA1FD8B0BA2B010EE7
:10107400BC6FB8BF42EF08F040EF08F048EF08F04B
:10108400B76DB81FD8B0B82B010EBC1B000EBE6FD5
:10109400000EBD6FB951BA11D8B453EF08F055EF33
:1010A40008F07DEF08F0010EBB6F5DEF08F0D890FB
:1010B400B937BA37BB2BBAAF62EF08F064EF08F068
:1010C40059EF08F0D890BD37BE37B951B75DBA5162
:1010D400B859D8A070EF08F072EF08F077EF08F075
:1010E400B951B75FBA51B85BBD81D890BA33B9333F
:1010F400BB2F64EF08F0BC51D8B483EF08F085EF40
:1011040008F089EF08F0BD6DBE1FD8B0BE2BBDC07E
:10111400B7F0BEC0B8F01200000E066E04BE97EF22
:1011240008F095EF08F09DEF08F0036C041ED8B0AA
:10113400042A010E066E02BEA4EF08F0A2EF08F026
:10114400AAEF08F0016C021ED8B0022A010E061A9A
:10115400000E086E000E076E03500410D8B4B5EFED
:1011640008F0B7EF08F0DFEF08F0010E056EBFEFEF
:1011740008F0D89003360436052A04AEC4EF08F00C
:10118400C6EF08F0BBEF08F0D890073608360350D6
:10119400015C04500258D8A0D2EF08F0D4EF08F054
:1011A400D9EF08F00350015E0450025A0780D8902A
:1011B40004320332052EC6EF08F00650D8B4E5EF2A
:1011C40008F0E7EF08F0EBEF08F0076C081ED8B062
:1011D400082A07C001F008C002F012000001B9514A
:1011E400D8B4F7EF08F0F9EF08F001EF09F0B951BE
:1011F400D8A4FFEF08F001EF09F006EF09F0B751AA
:101204000DEC0DF04DEF09F0B951D96EDA6A0A0E02
:10121400D926DE50DE10D8B412EF09F014EF09F02D
:101224002DEF09F0B951D96EDA6A0A0ED926B951EF
:10123400E16EE26A030EE126DE50E65CE650800AC7
:10124400BE6FDE50800ABE59D8B02BEF09F02DEFE7
:1012540009F04DEF09F0B951D96EDA6A030ED926B7
:10126400DECFBAF0DDCFBBF0B951D96EDA6ADECF8A
:10127400BCF0DDCFBDF0BA51BC25D96EBB51BD2148
:10128400DA6EB7C0DFFFB951D96EDA6A030ED92618
:10129400DE2A000EDD2212000350D8B454EF09F008
:1012A40056EF09F05EEF09F00350D8A45CEF09F0A3
:1012B4005EEF09F063EF09F001500EEC0DF0AAEFB8
:1012C40009F00350D96EDA6A0A0ED926DE50DE1010
:1012D400D8B46FEF09F071EF09F08AEF09F0035009
:1012E400D96EDA6A0A0ED9260350E16EE26A030E59
:1012F400E126DE50E65CE650800A086EDE50800A85
:101304000858D8B088EF09F08AEF09F0AAEF09F07D
:101314000350D96EDA6A030ED926DECF04F0DDCF8E
:1013240005F00350D96EDA6ADECF06F0DDCF07F0A0
:1013340004500624D96E05500720DA6E01C0DFFF81
:101344000350D96EDA6A030ED926DE2A000EDD2296
:101354001200000E0001BC6FB8BFB5EF09F0B3EF87
:1013640009F0BBEF09F0B76DB81FD8B0B82B010E68
:10137400BC6FBABFC2EF09F0C0EF09F0C6EF09F0C5
:10138400B96DBA1FD8B0BA2BB951BA11D8B4CDEFD0
:1013940009F0CFEF09F0F3EF09F0010EBB6FD7EFBF
:1013A40009F0D890B937BA37BB2BBAAFDCEF09F0E4
:1013B400DEEF09F0D3EF09F0B951B75DBA51B8596E
:1013C400D8A0E7EF09F0E9EF09F0EDEF09F0B95122
:1013D400B75FBA51B85BD890BA33B933BB2FDEEFDD
:1013E40009F0BC51D8B4F9EF09F0FBEF09F0FFEFB5
:1013F40009F0B76DB81FD8B0B82BB7C0B7F0B8C0F4
:10140400B8F01200000E396E35BE0DEF0AF00BEF86
:101414000AF013EF0AF0346C351ED8B0352A010EE9
:10142400396E37BE1AEF0AF018EF0AF01EEF0AF011
:10143400366C371ED8B0372A36503710D8B425EF5B
:101444000AF027EF0AF04BEF0AF0010E386E2FEF87
:101454000AF0D89036363736382A37AE34EF0AF0E9
:1014640036EF0AF02BEF0AF03650345C375035581B
:10147400D8A03FEF0AF041EF0AF045EF0AF03650EA
:10148400345E3750355AD89037323632382E36EFEC
:101494000AF03950D8B451EF0AF053EF0AF057EF7D
:1014A4000AF0346C351ED8B0352A34C034F035C057
:1014B40035F01200000E066E02BE65EF0AF063EF0F
:1014C4000AF06BEF0AF0016C021ED8B0022A010E7A
:1014D400066E04BE72EF0AF070EF0AF076EF0AF0BF
:1014E400036C041ED8B0042A03500410D8B47DEF52
:1014F4000AF07FEF0AF0A3EF0AF0010E056E87EF02
:101504000AF0D89003360436052A04AE8CEF0AF0AC
:101514008EEF0AF083EF0AF00350015C0450025886
:10152400D8A097EF0AF099EF0AF09DEF0AF0035064
:10153400015E0450025AD89004320332052E8EEF15
:101544000AF00650D8B4A9EF0AF0ABEF0AF0AFEFF7
:101554000AF0016C021ED8B0022A01C001F002C0D8
:1015640002F01200000E4024D96E020E4120DA6E01
:10157400AECFDFFF000E4024D96E020E4120DA6E9A
:101584000D0EDE18D8A4C9EF0AF0CBEF0AF0D9EF9C
:101594000AF0000E4024D96E020E4120DA6EDF50AC
:1015A400F1EC0CF00A0EF1EC0CF0E2EF0AF0000E94
:1015B4004024D96E020E4120DA6EDF50F1EC0CF0BB
:1015C400404A412A40C034F041C035F0000E376E25
:1015D4000A0E366E04EC0AF034C040F035C041F017
:1015E4001200180EF66E1A0EF76E000EF86E090051
:1015F400F5CF46F00900F5CF47F002EE00F0C80E33
:10160400EE6AE806FDE101EE00F0C80EEE6AE806B7
:10161400FDE100EE80F0370EEE6AE806FDE1456A72
:10162400446A436A426A416A406A48904892000E9A
:10163400F86E00017AEF03F0CA84CA50FC0B020969
:10164400CA6ECA50870B0809CA6EBD50F00B0C094C
:10165400BD6E000E946E000E8B6E9B0ECB6E0B0E49
:10166400BE6EBD50CF0B2009BD6E410E0001B76F99
:10167400EE0EE82EFED7B72FFCD700001200000EA6
:101684000001BB6F000EBA6F54EF0BF0BA51B825CE
:10169400D96EBB51B921DA6EDF50C3EC0CF00001F6
:1016A400BA4BBB2BBA51B825D96EBB51B921DA6EEE
:1016B400DF50D8A460EF0BF062EF0BF048EF0BF0B3
:1016C4001200CDC0CFF070EF0BF0CCC0C1F0CF0E44
:1016D4000001C26FCEC0C3F04CEC05F0CFC0F6FFE2
:1016E400060EF76E0800F5500009D8A47CEF0BF045
:1016F4007EEF0BF067EF0BF0000E0001CD6F000ED4
:10170400CC6F1200000E0001B86F000EB76F000E10
:10171400B725D96E020EB821DA6EDF6AB74BB82B43
:10172400B8BF9EEF0BF0B85109E10A0EB75DD8A01F
:101734009EEF0BF0A0EF0BF089EF0BF0000E416E63
:10174400000E406E1200D30E0001D56FD0C0D6F04B
:10175400D1C0D7F0000EDA6F000ED96F000EE16F22
:10176400000EE06FD60ECC6FD2C0CDF0D50ECE6F8A
:1017740063EC0BF00001D951D025D96EDA51D12197
:10178400DA6EDF6A1200000E056E000E046ED6EFEC
:101794000BF004500224D96E05500320DA6EDF509A
:1017A400FCEC0CF0044A052A04500224D96E0550BE
:1017B4000320DA6EDF50D8A4E2EF0BF0E4EF0BF075
:1017C400CBEF0BF01200000E026E000E016E000E45
:1017D4000124D96E020E0220DA6EDF6A014A022A5F
:1017E40002BEFEEF0BF0025009E10A0E015CD8A024
:1017F400FEEF0BF000EF0CF0E9EF0BF0000E416E82
:10180400000E406E120017C019F011EF0CF016C054
:101814000BF0190E0C6E18C00DF02DEC06F019C06B
:10182400F6FF060EF76E0800F5500009D8A41DEF68
:101834000CF01FEF0CF009EF0CF0000E176E000E09
:10184400166E1200B7C0BBF0B8C0BCF00001B92BD3
:10185400B905BA6FBAC0F6FF060EF76EBBC0D9FF62
:10186400BCC0DAFFBB4BBC2B0800F5CFDFFFDF5059
:10187400D8A43FEF0CF041EF0CF028EF0CF012006D
:101884001D0E1F6E1AC020F01BC021F0000E246E26
:10189400000E236E000E2B6E000E2A6E200E166EA6
:1018A4001CC017F01F0E186E05EC0CF023501A2400
:1018B400D96E24501B20DA6EDF6A120001C005F0D5
:1018C40002C006F0032A0304046E04C0F6FF060EE9
:1018D400F76E05C0D9FF06C0DAFF054A062A0800DC
:1018E400F5CFDFFFDF50D8A47AEF0CF07CEF0CF0DB
:1018F40064EF0CF012000001BEBF83EF0CF085EF23
:101904000CF08BEF0CF0BDC0BDF0BEC0BEF097EF85
:101914000CF0BDC0BFF0BEC0C0F0BF1FC01FBF4BA6
:10192400C02BBFC0BDF0C0C0BEF0120008BE9DEF0A
:101934000CF09FEF0CF0A5EF0CF007C007F008C007
:1019440008F0B1EF0CF007C009F008C00AF0091E56
:101954000A1E094A0A2A09C007F00AC008F0120040
:10196400948C948EAC98B896AC94330EAF6EAB8EC8
:101974009E889E9AAC8AAB889D989F989D8A9F9AD0
:1019840012000001B76FACA2CAEF0CF0CCEF0CF060
:10199400C5EF0CF0B7C0ADFF1200D38CD38AD39837
:1019A400000E956E8C908C9293809382010E926EB1
:1019B4001200CFEC0CF007EC0DF0B2EC0CF01EECC6
:1019C4000BF0E6EC0CF0120092680F0EC16EC08EA4
:1019D400070EC012000EC46E000EC36E1200346EE9
:1019E400ACA2F7EF0CF0F9EF0CF0F2EF0CF034C00E
:1019F400ADFF1200016EACA202EF0DF004EF0DF08A
:101A0400FDEF0CF001C0ADFF1200D08EF292F2880F
:0A1A1400F28E120001001200120011
:020000040020DA
:08000000FFFFFFFFFFFFFFFF00
:020000040030CA
:0E000000FF881F00FF8381FF0FC00FE00F403D
:00000001FF
